{
  "_format": "hh-sol-artifact-1",
  "contractName": "TrainingParticipant",
  "sourceName": "contracts/TrainingParticipant.sol",
  "abi": [
    {
      "inputs": [
        {
          "internalType": "string",
          "name": "_name",
          "type": "string"
        },
        {
          "internalType": "string",
          "name": "_role",
          "type": "string"
        }
      ],
      "name": "addParticipant",
      "outputs": [],
      "stateMutability": "payable",
      "type": "function"
    },
    {
      "inputs": [
        {
          "internalType": "uint256",
          "name": "_id",
          "type": "uint256"
        }
      ],
      "name": "getParticipantById",
      "outputs": [
        {
          "components": [
            {
              "internalType": "uint256",
              "name": "id",
              "type": "uint256"
            },
            {
              "internalType": "string",
              "name": "name",
              "type": "string"
            },
            {
              "internalType": "string",
              "name": "role",
              "type": "string"
            }
          ],
          "internalType": "struct TrainingParticipant.Participant",
          "name": "",
          "type": "tuple"
        }
      ],
      "stateMutability": "view",
      "type": "function"
    },
    {
      "inputs": [],
      "name": "getParticipants",
      "outputs": [
        {
          "components": [
            {
              "internalType": "uint256",
              "name": "id",
              "type": "uint256"
            },
            {
              "internalType": "string",
              "name": "name",
              "type": "string"
            },
            {
              "internalType": "string",
              "name": "role",
              "type": "string"
            }
          ],
          "internalType": "struct TrainingParticipant.Participant[]",
          "name": "",
          "type": "tuple[]"
        }
      ],
      "stateMutability": "view",
      "type": "function"
    }
  ],
  "bytecode": "0x608060405260015f55348015610013575f80fd5b50610c8a806100215f395ff3fe608060405260043610610033575f3560e01c806353850db3146100375780635aa68ac014610073578063f35400581461009d575b5f80fd5b348015610042575f80fd5b5061005d600480360381019061005891906104ae565b6100b9565b60405161006a91906105c6565b60405180910390f35b34801561007e575f80fd5b5061008761022c565b60405161009491906106f5565b60405180910390f35b6100b760048036038101906100b29190610841565b6103b1565b005b6100c161044a565b5f600180846100d091906108e4565b815481106100e1576100e0610917565b5b905f5260205f2090600302019050806040518060600160405290815f820154815260200160018201805461011490610971565b80601f016020809104026020016040519081016040528092919081815260200182805461014090610971565b801561018b5780601f106101625761010080835404028352916020019161018b565b820191905f5260205f20905b81548152906001019060200180831161016e57829003601f168201915b505050505081526020016002820180546101a490610971565b80601f01602080910402602001604051908101604052809291908181526020018280546101d090610971565b801561021b5780601f106101f25761010080835404028352916020019161021b565b820191905f5260205f20905b8154815290600101906020018083116101fe57829003601f168201915b505050505081525050915050919050565b60606001805480602002602001604051908101604052809291908181526020015f905b828210156103a8578382905f5260205f2090600302016040518060600160405290815f820154815260200160018201805461028990610971565b80601f01602080910402602001604051908101604052809291908181526020018280546102b590610971565b80156103005780601f106102d757610100808354040283529160200191610300565b820191905f5260205f20905b8154815290600101906020018083116102e357829003601f168201915b5050505050815260200160028201805461031990610971565b80601f016020809104026020016040519081016040528092919081815260200182805461034590610971565b80156103905780601f1061036757610100808354040283529160200191610390565b820191905f5260205f20905b81548152906001019060200180831161037357829003601f168201915b5050505050815250508152602001906001019061024f565b50505050905090565b5f60405180606001604052805f548152602001848152602001838152509050600181908060018154018082558091505060019003905f5260205f2090600302015f909190919091505f820151815f015560208201518160010190816104169190610b3e565b50604082015181600201908161042c9190610b3e565b5050505f8081548092919061044090610c0d565b9190505550505050565b60405180606001604052805f815260200160608152602001606081525090565b5f604051905090565b5f80fd5b5f80fd5b5f819050919050565b61048d8161047b565b8114610497575f80fd5b50565b5f813590506104a881610484565b92915050565b5f602082840312156104c3576104c2610473565b5b5f6104d08482850161049a565b91505092915050565b6104e28161047b565b82525050565b5f81519050919050565b5f82825260208201905092915050565b5f5b8381101561051f578082015181840152602081019050610504565b5f8484015250505050565b5f601f19601f8301169050919050565b5f610544826104e8565b61054e81856104f2565b935061055e818560208601610502565b6105678161052a565b840191505092915050565b5f606083015f8301516105875f8601826104d9565b506020830151848203602086015261059f828261053a565b915050604083015184820360408601526105b9828261053a565b9150508091505092915050565b5f6020820190508181035f8301526105de8184610572565b905092915050565b5f81519050919050565b5f82825260208201905092915050565b5f819050602082019050919050565b5f606083015f8301516106245f8601826104d9565b506020830151848203602086015261063c828261053a565b91505060408301518482036040860152610656828261053a565b9150508091505092915050565b5f61066e838361060f565b905092915050565b5f602082019050919050565b5f61068c826105e6565b61069681856105f0565b9350836020820285016106a885610600565b805f5b858110156106e357848403895281516106c48582610663565b94506106cf83610676565b925060208a019950506001810190506106ab565b50829750879550505050505092915050565b5f6020820190508181035f83015261070d8184610682565b905092915050565b5f80fd5b5f80fd5b7f4e487b71000000000000000000000000000000000000000000000000000000005f52604160045260245ffd5b6107538261052a565b810181811067ffffffffffffffff821117156107725761077161071d565b5b80604052505050565b5f61078461046a565b9050610790828261074a565b919050565b5f67ffffffffffffffff8211156107af576107ae61071d565b5b6107b88261052a565b9050602081019050919050565b828183375f83830152505050565b5f6107e56107e084610795565b61077b565b90508281526020810184848401111561080157610800610719565b5b61080c8482856107c5565b509392505050565b5f82601f83011261082857610827610715565b5b81356108388482602086016107d3565b91505092915050565b5f806040838503121561085757610856610473565b5b5f83013567ffffffffffffffff81111561087457610873610477565b5b61088085828601610814565b925050602083013567ffffffffffffffff8111156108a1576108a0610477565b5b6108ad85828601610814565b9150509250929050565b7f4e487b71000000000000000000000000000000000000000000000000000000005f52601160045260245ffd5b5f6108ee8261047b565b91506108f98361047b565b9250828203905081811115610911576109106108b7565b5b92915050565b7f4e487b71000000000000000000000000000000000000000000000000000000005f52603260045260245ffd5b7f4e487b71000000000000000000000000000000000000000000000000000000005f52602260045260245ffd5b5f600282049050600182168061098857607f821691505b60208210810361099b5761099a610944565b5b50919050565b5f819050815f5260205f209050919050565b5f6020601f8301049050919050565b5f82821b905092915050565b5f600883026109fd7fffffffffffffffffffffffffffffffffffffffffffffffffffffffffffffffff826109c2565b610a0786836109c2565b95508019841693508086168417925050509392505050565b5f819050919050565b5f610a42610a3d610a388461047b565b610a1f565b61047b565b9050919050565b5f819050919050565b610a5b83610a28565b610a6f610a6782610a49565b8484546109ce565b825550505050565b5f90565b610a83610a77565b610a8e818484610a52565b505050565b5b81811015610ab157610aa65f82610a7b565b600181019050610a94565b5050565b601f821115610af657610ac7816109a1565b610ad0846109b3565b81016020851015610adf578190505b610af3610aeb856109b3565b830182610a93565b50505b505050565b5f82821c905092915050565b5f610b165f1984600802610afb565b1980831691505092915050565b5f610b2e8383610b07565b9150826002028217905092915050565b610b47826104e8565b67ffffffffffffffff811115610b6057610b5f61071d565b5b610b6a8254610971565b610b75828285610ab5565b5f60209050601f831160018114610ba6575f8415610b94578287015190505b610b9e8582610b23565b865550610c05565b601f198416610bb4866109a1565b5f5b82811015610bdb57848901518255600182019150602085019450602081019050610bb6565b86831015610bf85784890151610bf4601f891682610b07565b8355505b6001600288020188555050505b505050505050565b5f610c178261047b565b91507fffffffffffffffffffffffffffffffffffffffffffffffffffffffffffffffff8203610c4957610c486108b7565b5b60018201905091905056fea264697066735822122088e1d9cd9e835d631d6efbe5ded29c6079a23653b0016b5ad03437f35eedcfd664736f6c63430008150033",
  "linkReferences": {},
  "deployedLinkReferences": {}
}